:100000000C9463000C948B000C948B000C94E00314
:100010000C94E0030C94E0030C948B000C948B0084
:100020000C948B000C948B000C948B000C948B0024
:100030000C948B000C948B000C948B000C948B0014
:100040000C9496030C948B000C9464030C943E0364
:100050000C948B000C948B000C948B000C948B00F4
:100060000C948B000C948B0000000008000201002F
:100070000003040700000000000000000000000072
:10008000250028002B0000000000240027002A0083
:1000900000000000230026002900040404040404D6
:1000A0000404020202020202030303030303010227
:1000B00004081020408001020408102001020408F6
:1000C00010205A047D0811241FBECFEFD8E0DEBFF8
:1000D000CDBF11E0A0E0B1E0E6E6F5E102C0059099
:1000E0000D92A034B107D9F722E0A0E4B1E001C03D
:1000F0001D92A835B207E1F710E0C2E6D0E004C0D7
:100100002197FE010E949B0AC136D107C9F70E94C0
:100110004E050C94A60A0C940000CF92DF92EF9249
:10012000FF920F931F93CF93DF936C017A018B01A2
:10013000C0E0D0E0CE15DF0589F0D8016D918D01CA
:10014000D601ED91FC910190F081E02DC601099559
:10015000892B11F47E0102C02196ECCFC701DF91FB
:10016000CF911F910F91FF90EF90DF90CF90089566
:10017000FC01538D448D252F30E0842F90E0821BAD
:10018000930B541710F0CF96089501970895FC0132
:10019000918D828D981761F0828DDF01A80FB11DBE
:1001A0005D968C91928D9F5F9F73928F90E00895E2
:1001B0008FEF9FEF0895FC01918D828D981731F09C
:1001C000828DE80FF11D858D90E008958FEF9FEFF0
:1001D0000895FC01918D228D892F90E0805C9F4FC6
:1001E000821B91098F739927089581E991E00E94FC
:1001F000E90021E0892B09F420E0822F0895FC0119
:10020000848DDF01A80FB11DA35ABF4F2C91848D9F
:1002100090E001968F739927848FA689B7892C93D4
:10022000A089B1898C9180648C93938D848D98136F
:1002300006C00288F389E02D80818F7D8083089538
:10024000EF92FF920F931F93CF93DF93EC0181E026
:10025000888F9B8D8C8D981305C0E889F9898081E2
:1002600085FD24C0F62E0B8D10E00F5F1F4F0F731E
:100270001127E02E8C8DE8120CC00FB607FCFACFC8
:10028000E889F989808185FFF5CFCE010E94FF00C2
:10029000F1CF8B8DFE01E80FF11DE35AFF4FF08285
:1002A0000B8FEA89FB898081806207C0EE89FF8914
:1002B0006083E889F98980818064808381E090E0AF
:1002C000DF91CF911F910F91FF90EF900895CF9301
:1002D000DF93EC01888D8823C9F0EA89FB8980814E
:1002E00085FD05C0A889B9898C9186FD0FC00FB620
:1002F00007FCF5CF808185FFF2CFA889B9898C9161
:1003000085FFEDCFCE010E94FF00E7CFDF91CF91B7
:10031000089580E090E0892B29F00E94F50081117A
:100320000C940000089590E0FC01E859FF4F3491CF
:10033000FC01E255FF4F2491FC01E656FF4FE4918A
:10034000EE2309F43BC0332339F1333091F038F414
:100350003130A9F0323001F584B58F7D12C03730CD
:1003600091F03830A1F03430B9F4809180008F7D65
:1003700003C0809180008F77809380000DC084B58A
:100380008F7784BD09C08091B0008F7703C08091C2
:10039000B0008F7D8093B000F0E0EE0FFF1FE458B7
:1003A000FF4FA591B4918FB7F894EC91611103C000
:1003B00020952E2301C02E2B2C938FBF08953FB77D
:1003C000F8948091850190918601A0918701B09168
:1003D000880126B5A89B05C02F3F19F00196A11DE5
:1003E000B11D3FBFBA2FA92F982F8827820F911DCB
:1003F000A11DB11DBC01CD0142E0660F771F881F12
:10040000991F4A95D1F708952FB7F894609181010B
:100410007091820180918301909184012FBF089592
:1004200020918B0130918C012817390771F490913C
:10043000890180918A01981741F0E0918901F0E0EB
:10044000E05CFE4F808190E008958FEF9FEF08956C
:1004500008951F93CF93DF93DC015C962D913C911F
:100460005D972115310539F481E090E013969C9356
:100470008E9312973DC05196ED91FC9152975096F4
:100480009C915097892F80951FB75E964C915E97EF
:1004900041FB772770F941FD6095F89440817723FF
:1004A00011F0492B01C048234083E9012197F1F75E
:1004B00048E0508160FF02C0592B01C0582350838F
:1004C000E9012197F1F76695415099F7772321F0DB
:1004D00090818923808303C08081982B90831FBFE4
:1004E0005C968D919C915D970197F1F721E030E04A
:1004F000C901DF91CF911F91089520918B01309117
:100500008C012817390771F480918A0120918901A3
:1005100090E0805C9F4F821B910960E470E00E9434
:10052000510A089580E090E0089520918B01309168
:100530008C0128173907B9F49091890180918A01BB
:10054000981789F0E0918901F0E0E05CFE4F80812E
:100550002091890130E02F5F3F4F2F733327209385
:10056000890190E008958FEF9FEF0895E0918B014E
:10057000F0918C01E817F90769F4A389B4899C917B
:100580008589809589238C9310928C0110928B0120
:1005900081E0089580E00895089580E090E0089556
:1005A0006115710579F0FB0101900020E9F73197A1
:1005B000AF01461B570BDC01ED91FC910280F381EA
:1005C000E02D099480E090E008958F929F92AF9281
:1005D000BF920F931F93CF93DF93CDB7DEB7A19751
:1005E0000FB6F894DEBF0FBECDBF19A2423008F49B
:1005F0004AE08E010F5D1F4F842E912CA12CB12C4F
:10060000A50194010E94650AE62FB901CA010150B3
:100610001109EA3014F4E05D01C0E95CD801EC9303
:10062000232B242B252B61F7B80181E991E00E944F
:10063000D002A1960FB6F894DEBF0FBECDBFDF91FA
:10064000CF911F910F91BF90AF909F908F90089581
:100650000F931F93CF93DF93EC010E94D0028C0184
:1006600064E271E0CE010E94D002800F911FDF9101
:10067000CF911F910F9108950E94A10A1F920F928E
:100680000FB60F9211242F933F934F935F936F9365
:100690007F938F939F93AF93BF93EF93FF9381E9E2
:1006A00091E00E94FF00FF91EF91BF91AF919F9168
:1006B0008F917F916F915F914F913F912F910F900B
:1006C0000FBE0F901F9018951F920F920FB60F92AA
:1006D00011242F938F939F93EF93FF93E091A101A8
:1006E000F091A2018081E091A701F091A80182FD23
:1006F00012C090818091AA018F5F8F732091AB010E
:10070000821751F0E091AA01F0E0EF56FE4F958F6D
:100710008093AA0101C08081FF91EF919F918F91F9
:100720002F910F900FBE0F901F9018951F920F9250
:100730000FB60F9211242F933F938F939F93AF93F4
:10074000BF938091810190918201A0918301B0912A
:1007500084013091800123E0230F2D3720F401968E
:10076000A11DB11D05C026E8230F0296A11DB11DD4
:10077000209380018093810190938201A093830153
:10078000B09384018091850190918601A0918701A9
:10079000B09188010196A11DB11D809385019093B0
:1007A0008601A0938701B0938801BF91AF919F917B
:1007B0008F913F912F910F900FBE0F901F90189522
:1007C0001F920F920FB60F9211242F933F934F93C6
:1007D0005F936F937F938F939F93AF93BF93EF93A9
:1007E000FF93E0918B01F0918C01309709F451C097
:1007F000968DA685B785858591FF04C09C91892338
:1008000029F447C09C91892309F043C0A389B48986
:100810009C918589809589238C93868997890197F6
:10082000F1F7608D718DA685B785558538E020E09C
:10083000CB010197F1F7822F90E095958795282FAE
:100840004C91452309F02068315091F7868D81FD48
:10085000209580918A0190E001968F7399273091BD
:100860008901381749F0A0918A01B0E0A05CBE4F21
:100870002C9380938A0103C0868D8160868F828D40
:10088000938D0197F1F7A389B4899C918589892B70
:100890008C93FF91EF91BF91AF919F918F917F9139
:1008A0006F915F914F913F912F910F900FBE0F90DD
:1008B0001F901895CF93DF9310929401109293019B
:1008C00088EE93E0A0E0B0E08093950190939601CC
:1008D000A0939701B093980124E031E03093920106
:1008E0002093910125EC30E030939E0120939D01EF
:1008F00024EC30E03093A00120939F0120EC30E005
:100900003093A2012093A10121EC30E03093A401A7
:100910002093A30122EC30E03093A6012093A5019F
:1009200026EC30E03093A8012093A7011092AA0191
:100930001092AB011092AC011092AD0110923002F6
:10094000109231021092320210923302109234024D
:10095000109235021092360210923702109238022D
:1009600010923C0210923B0280933D0290933E0213
:10097000A0933F02B093400286E191E090933A0247
:10098000809339021092500210924F02109252023C
:100990001092510210925402109253021092560279
:1009A00010925502609157026E7F6D7F60935702DF
:1009B0006695617081E0682783E00E949301E1EB16
:1009C000F0E02491EDE9F0E08491882399F090E043
:1009D000880F991FFC01EA57FF4FA591B491FC01C4
:1009E000E458FF4F859194918FB7F894EC91E22BE6
:1009F000EC938FBFE1EBF0E0E491E0934902EDE985
:100A0000F0E0E491F0E0EE0FFF1FE458FF4F859116
:100A1000949190934B0280934A02E2EBF0E0249190
:100A2000EEE9F0E084918823C1F090E0880F991FEF
:100A3000FC01EA57FF4FC591D491FC01E458FF4FE8
:100A4000A591B4919FB7F8948881E22FE0958E2309
:100A500088838C91E823EC939FBF8091570281FD9E
:100A600004C061E084E00E94930184E08093450229
:100A7000E2EBF0E0E491E0934602EEE9F0E0E4918D
:100A8000F0E0EE0FFF1FE057FF4F85919491909398
:100A9000480280934702DF91CF910895CF93DF936F
:100AA00000D01F92CDB7DEB7789484B5826084BD44
:100AB00084B5816084BD85B5826085BD85B5816062
:100AC00085BD80916E00816080936E0010928100E0
:100AD000809181008260809381008091810081609B
:100AE000809381008091800081608093800080915C
:100AF000B10084608093B1008091B00081608093E8
:100B0000B00080917A00846080937A0080917A00AE
:100B1000826080937A0080917A00816080937A006D
:100B200080917A00806880937A001092C100E091F1
:100B3000A101F091A20182E08083E0919D01F091FA
:100B40009E011082E0919F01F091A00180E18083DD
:100B50001092A901E091A501F091A60186E08083A1
:100B6000E091A301F091A401808180618083E091F4
:100B7000A301F091A401808188608083E091A301AA
:100B8000F091A401808180688083E091A301F091BD
:100B9000A40180818F7D80831092540210925302B1
:100BA00010925202109251021092500210924F0273
:100BB00082E490E090935602809355029091450212
:100BC000963108F057C02FE030E030935002209368
:100BD0004F0220E430E0309352022093510227E28A
:100BE00030E03093540220935302209168009830F3
:100BF00050F031E09E3008F430E081E001C0880F11
:100C00003A95EAF701C084E0822B8093680098301F
:100C100038F09E3040F0963148F020E030E008C0D7
:100C20002DE630E005C02BE630E002C02CE630E0D7
:100C300030934D0220934C02983030F481E001C093
:100C4000880F9A95EAF70EC0292F30E09E3018F4ED
:100C50002850310902C02E50310981E001C0880FAF
:100C60002A95EAF780934E028091550290915602A0
:100C70000197F1F78091530290915402892B21F151
:100C800080918B0190918C0122E089339207E1F0F1
:100C9000009711F00E94B602809157028E7F8093D8
:100CA000570210928A011092890189E392E0909391
:100CB0008C0180938B01E0914C02F0914D02908168
:100CC00080914E02892B808389E392E090932F02DA
:100CD00080932E021092380211E00E940402C0900C
:100CE0008D01D0908E01E0908F01F0909001DC0199
:100CF000CB018C199D09AE09BF090697A105B10565
:100D0000B8F10E94040260938D0170938E0180936C
:100D10008F019093900180913002811129C010932E
:100D200030020E9404026093310270933202809379
:100D300033029093340267E271E080912E02909129
:100D40002F020E9428032091380280912E02909158
:100D50002F02213049F028F0223051F460E371E095
:100D600005C06AE271E002C06DE271E00E942803F2
:100D700080912E0290912F02DC01ED91FC91008474
:100D8000F185E02D0995892BD9F40E940402C090C9
:100D90003102D0903202E0903302F0903402DC0154
:100DA000CB018C199D09AE09BF0985369105A105B6
:100DB000B10508F46EC080913002811194C169C000
:100DC0001092300200E080912E0290912F02DC01FF
:100DD000ED91FC910084F185E02D0995892B09F4B2
:100DE0004FC00330C0F480912E0290912F02DC019D
:100DF000ED91FC910284F385E02D0995E1E0F0E0AE
:100E0000EC0FFD1FE00FF11D80830F5F0E94DF01DB
:100E10006B017C0127C080912E0290912F02DC0192
:100E2000ED91FC910084F185E02D0995892BD9F293
:100E300080912E0290912F02DC01ED91FC910284B1
:100E4000F385E02D0995E7CF80912E0290912F0236
:100E5000DC01ED91FC910084F185E02D0995892B51
:100E600009F0B1CF0E94DF01DC01CB018C199D0993
:100E7000AE09BF09883E9340A105B10528F3A3CF71
:100E80008981809335028A81809336028B81809399
:100E90003702809136028F3F09F452C0882309F44B
:100EA00025C160E070E0E82EF12CC701062E02C0DB
:100EB000959587950A94E2F780FF0BC063507109FE
:100EC000072E000C880B990B0E942A094B015C012C
:100ED00008C06F5F7F4F6730710539F7812C912C07
:100EE000540186E090E09701082E02C035952795C1
:100EF0000A94E2F720FF0AC00397BC01990F880B00
:100F0000990B0E942A099B01AC0105C0019758F773
:100F100020E030E0A901C501B4010E94880820E06A
:100F200030E040E05FEB0E94DF096B017C019B0138
:100F3000AC010E944C0A882331F063E371E01DC0CC
:100F4000C12CD12C760146015701E894B7F82FEF58
:100F50003FEF4FE75FE7C501B4010E944C0A8111E2
:100F600011C02FEF3FEF4FE75FE7C501B4010E94CB
:100F7000F40818163CF467E371E081E991E00E94FF
:100F8000D00282C02FEF3FEF4FE75FE4C701B60109
:100F90000E94DA0918161CF46BE371E0EECF2FEF14
:100FA0003FEF4FE75FECC701B6010E94F40887FDF1
:100FB000F3CF20E030E0A901C701B6010E94F40898
:100FC00087FF0FC0E0919101F09192010190F081B3
:100FD000E02D6DE281E991E00995F7FAF094F7F8D8
:100FE000F0942AE037ED43EA5BE3C701B6010E94C3
:100FF00088084B015C010E94F9086B017C010E948A
:1010000028099B01AC01C501B4010E9487084B016E
:101010005C014AE0C701B6010E94E502E09191013E
:10102000F09192010190F081E02D6EE281E991E072
:10103000099520E030E040E251E4C501B4010E948E
:10104000DF094B015C010E94F9086B01E12CF12CD6
:101050004AE0C701B6010E94E502C701B6010E943D
:1010600028099B01AC01C501B4010E94870820E05A
:1010700030E040E251E40E94DF090E94F90880E07C
:1010800090E04AE00E94E50264E271E081E991E0CB
:101090000E94D0020E94DF014B015C019AE0C92E40
:1010A000D12CE12CF12C0E94DF01DC01CB0188194D
:1010B0009909AA09BB09883E9340A105B10558F0DA
:1010C00021E0C21AD108E108F10888EE880E83E019
:1010D000981EA11CB11CC114D104E104F10419F73C
:1010E0000E948901FACD10923002D3CEC12CD12CAE
:1010F0008FE7E82E83E4F82E26CF86E191E09093E7
:101100003A028093390289E392E00C94B602505877
:10111000BB27AA270E949F080C94A0090E9492094D
:1011200038F00E94990920F039F49F3F19F426F411
:101130000C948F090EF4E095E7FB0C948909E92FD4
:101140000E94B10958F3BA1762077307840795071D
:1011500020F079F4A6F50C94D3090EF4E0950B2E4B
:10116000BA2FA02D0B01B90190010C01CA01A001F9
:101170001124FF27591B99F0593F50F4503E68F154
:101180001A16F040A22F232F342F4427585FF3CF95
:10119000469537952795A795F0405395C9F77EF466
:1011A0001F16BA0B620B730B840BBAF09150A1F0AF
:1011B000FF0FBB1F661F771F881FC2F70EC0BA0F35
:1011C000621F731F841F48F4879577956795B795BD
:1011D000F7959E3F08F0B0CF9395880F08F09927B8
:1011E000EE0F9795879508950E94650908F481E0B0
:1011F00008950E94B90988F09F5798F0B92F992750
:10120000B751B0F0E1F0660F771F881F991F1AF0F1
:10121000BA95C9F714C0B13091F00E94D309B1E07A
:1012200008950C94D309672F782F8827B85F39F079
:10123000B93FCCF3869577956795B395D9F73EF48A
:1012400090958095709561957F4F8F4F9F4F089532
:10125000E89409C097FB3EF4909580957095619550
:101260007F4F8F4F9F4F9923A9F0F92F96E9BB2706
:101270009395F695879577956795B795F111F8CF82
:10128000FAF4BB0F11F460FF1BC06F5F7F4F8F4FED
:101290009F4F16C0882311F096E911C0772321F0E3
:1012A0009EE8872F762F05C0662371F096E8862F7B
:1012B00070E060E02AF09A95660F771F881FDAF7D2
:1012C000880F9695879597F90895990F0008550FFF
:1012D000AA0BE0E8FEEF16161706E807F907C0F0BC
:1012E00012161306E407F50798F0621B730B840BC4
:1012F000950B39F40A2661F0232B242B252B21F49E
:1013000008950A2609F4A140A6958FEF811D811D3D
:10131000089597F99F6780E870E060E008959FEF77
:1013200080EC089500240A9416161706180609067C
:10133000089500240A94121613061406050608954B
:10134000092E0394000C11F4882352F0BB0F40F4D3
:10135000BF2B11F460FF04C06F5F7F4F8F4F9F4F13
:10136000089557FD9058440F551F59F05F3F71F095
:101370004795880F97FB991F61F09F3F79F08795FC
:101380000895121613061406551FF2CF4695F1DF85
:1013900008C0161617061806991FF1CF8695710515
:1013A000610508940895E894BB2766277727CB0149
:1013B00097F908950E94650908F48FEF08950E9437
:1013C000F2090C94A0090E94920938F00E94990930
:1013D00020F0952311F00C9489090C948F091124A5
:1013E0000C94D4090E94B10970F3959FC1F3950F35
:1013F00050E0551F629FF001729FBB27F00DB11D99
:10140000639FAA27F00DB11DAA1F649F6627B00D28
:10141000A11D661F829F2227B00DA11D621F739F11
:10142000B00DA11D621F839FA00D611D221F749F1F
:101430003327A00D611D231F849F600D211D822F66
:10144000762F6A2F11249F5750409AF0F1F088238D
:101450004AF0EE0FFF1FBB1F661F771F881F9150BA
:101460005040A9F79E3F510580F00C9489090C94D7
:10147000D4095F3FE4F3983ED4F38695779567955A
:10148000B795F795E7959F5FC1F7FE2B880F911DE4
:101490009695879597F908950E946509880B990B91
:1014A000089597FB072E16F4009407D077FD09D016
:1014B0000E94870A07FC05D03EF4909581959F4FC6
:1014C0000895709561957F4F0895A1E21A2EAA1B89
:1014D000BB1BFD010DC0AA1FBB1FEE1FFF1FA217E4
:1014E000B307E407F50720F0A21BB30BE40BF50BE1
:1014F000661F771F881F991F1A9469F7609570956A
:10150000809590959B01AC01BD01CF010895AA1B68
:10151000BB1B51E107C0AA1FBB1FA617B70710F0DE
:10152000A61BB70B881F991F5A95A9F78095909510
:10153000BC01CD010895EE0FFF1F0590F491E02D41
:10154000099481E090E0F8940C94A60A10E0C2E6B9
:10155000D0E004C0FE010E949B0A2196C336D10749
:06156000C9F7F894FFCF6B
:101566000000000020018D00B8006701E900C700F7
:10157600DB000000000029028D00CD0228027D025A
:10158600950210020D0A00525100535200534200B8
:101596005357006E616E00696E66006F76660000D6
:107800000C94343C0C94513C0C94513C0C94513CE1
:107810000C94513C0C94513C0C94513C0C94513CB4
:107820000C94513C0C94513C0C94513C0C94513CA4
:107830000C94513C0C94513C0C94513C0C94513C94
:107840000C94513C0C94513C0C94513C0C94513C84
:107850000C94513C0C94513C0C94513C0C94513C74
:107860000C94513C0C94513C11241FBECFEFD8E036
:10787000DEBFCDBF11E0A0E0B1E0ECE9FFE702C060
:1078800005900D92A230B107D9F712E0A2E0B1E065
:1078900001C01D92AD30B107E1F70E942D3D0C945F
:1078A000CC3F0C94003C982F959595959595959582
:1078B000905D8F708A307CF0282F295A8091C0000B
:1078C00085FFFCCF9093C6008091C00085FFFCCF60
:1078D0002093C6000895282F205DF0CF982F809127
:1078E000C00085FFFCCF9093C6000895EF92FF92F1
:1078F0000F931F93EE24FF2487018091C00087FD22
:1079000017C00894E11CF11C011D111D81E4E8164B
:1079100082E4F8068FE0080780E0180770F3E09132
:107920000401F091050109958091C00087FFE9CF1E
:107930008091C6001F910F91FF90EF9008950E94D3
:10794000763C982F8091C00085FFFCCF9093C600B5
:1079500091362CF490330CF09053892F089597555D
:10796000892F08951F930E949F3C182F0E949F3CCF
:107970001295107F810F1F9108951F93182F882350
:1079800021F00E94763C1150E1F71F9108951F935A
:10799000182F0E94763C803249F0809103018F5F5E
:1079A000809303018530C1F01F9108958091C0003C
:1079B00085FFFCCF84E18093C6008091C00085FFE5
:1079C000FCCF1093C6008091C00085FFFCCF80E102
:1079D0008093C6001F910895E0910401F091050184
:1079E00009951F9108950E94763C803241F0809164
:1079F00003018F5F80930301853081F008958091AA
:107A0000C00085FFFCCF84E18093C6008091C00058
:107A100085FFFCCF80E18093C6000895E0910401CA
:107A2000F09105010995089540E951E08823A1F0FE
:107A30002D9A28EE33E0FA013197F1F721503040CA
:107A4000D1F72D9828EE33E0FA013197F1F7215064
:107A50003040D1F7815061F708953F924F925F9285
:107A60006F927F928F929F92AF92BF92CF92DF924E
:107A7000EF92FF920F931F93CF93DF93000080E16B
:107A80008093C4001092C50088E18093C10086E015
:107A90008093C2005098589A259A81E00E94143D24
:107AA00024E1F22E9EE1E92E85E9D82E0FE0C02ECA
:107AB00010E1B12EAA24A394B1E49B2EA6E58A2E50
:107AC000F2E57F2EE0E26E2E79E4572E63E5462E36
:107AD00050E5352E0E94763C8033B1F18133B9F107
:107AE000803409F46FC0813409F476C0823409F41B
:107AF00085C0853409F488C0803531F1823521F1A3
:107B0000813511F1853509F485C0863509F48DC0BC
:107B1000843609F496C0843709F403C1853709F423
:107B200072C1863709F466C0809103018F5F80932C
:107B30000301853079F6E0910401F0910501099582
:107B40000E94763C803351F60E94F33CC3CF0E94E2
:107B5000763C803249F78091C00085FFFCCFF092DF
:107B6000C6008091C00085FFFCCF9092C600809136
:107B7000C00085FFFCCF8092C6008091C00085FFC9
:107B8000FCCF7092C6008091C00085FFFCCF609250
:107B9000C6008091C00085FFFCCF5092C600809146
:107BA000C00085FFFCCF4092C6008091C00085FFD9
:107BB000FCCF3092C6008091C00085FFFCCFB09210
:107BC000C60088CF0E94763C863808F4BDCF0E945C
:107BD000763C0E94F33C7ECF0E94763C803809F4CC
:107BE0009CC0813809F40BC1823809F43CC1883942
:107BF00009F48FC080E00E94C73C6CCF84E10E94F2
:107C0000BD3C0E94F33C66CF85E00E94BD3C0E94D3
:107C1000F33C60CF0E94763C809306010E94763C44
:107C2000809307010E94F33C55CF0E94763C80333D
:107C300009F41DC183E00E94BD3C80E00E94C73C66
:107C400049CF0E94763C809309020E94763C809343
:107C5000080280910C028E7F80930C020E94763C79
:107C6000853409F415C18091080290910902892B8D
:107C700089F000E010E00E94763CF801E85FFE4FDA
:107C800080830F5F1F4F80910802909109020817AF
:107C9000190788F30E94763C803209F045CF809125
:107CA0000C0280FF01C16091060170910701660F0F
:107CB000771F7093070160930601A0910802B091AD
:107CC00009021097C9F0E8E0F1E09B01AD014E0F09
:107CD0005F1FF999FECF32BD21BD819180BDFA9A17
:107CE000F99A2F5F3F4FE417F50799F76A0F7B1F4B
:107CF00070930701609306018091C00085FFFCCF5F
:107D0000F092C6008091C00085FFFCCFB092C60003
:107D1000E1CE83E00E94C73CDDCE82E00E94C73CFA
:107D2000D9CE0E94763C809309020E94763C8093D3
:107D300008028091060190910701880F991F909386
:107D40000701809306010E94763C853409F4A6C0A1
:107D500080910C028E7F80930C020E94763C8032D0
:107D600009F0B8CE8091C00085FFFCCFF092C6002C
:107D7000609108027091090261157105B9F140E046
:107D800050E080910C02A82FA170B82FB27011C0E2
:107D9000BB2309F45CC0E0910601F0910701319624
:107DA000F0930701E09306014F5F5F4F46175707B7
:107DB000E8F4AA2369F3F999FECF209106013091E6
:107DC000070132BD21BDF89A90B58091C00085FFB2
:107DD000FCCF9093C6002F5F3F4F30930701209355
:107DE00006014F5F5F4F4617570718F38091C00099
:107DF00085FDE5CE8091C00085FFF8CFE0CE81E023
:107E00000E94C73C67CE0E94763C803209F08CCE3F
:107E10008091C00085FFFCCFF092C6008091C00029
:107E200085FFFCCFE092C6008091C00085FFFCCFAB
:107E3000D092C6008091C00085FFFCCFC092C600E2
:107E40008091C00085FFFCCFB092C60043CEE09188
:107E50000601F091070194918091C00085FFFCCF4D
:107E60009093C6009CCF80E10E94C73C33CE0E9415
:107E7000763C0E94763C182F0E94763C112309F430
:107E800083C0113009F484C08FE00E94C73C22CE29
:107E900080910C02816080930C02E5CE80910C02EF
:107EA000816080930C0259CF809107018823880F4D
:107EB000880B8A2180930B02809106019091070123
:107EC000880F991F90930701809306018091080203
:107ED00080FF09C080910802909109020196909359
:107EE000090280930802F894F999FECF1127E091D6
:107EF0000601F0910701C8E0D1E08091080290915D
:107F00000902103091F40091570001700130D9F34B
:107F100003E000935700E89500915700017001308D
:107F2000D9F301E100935700E89509901990009169
:107F3000570001700130D9F301E000935700E89534
:107F40001395103498F011270091570001700130FB
:107F5000D9F305E000935700E895009157000170B0
:107F60000130D9F301E100935700E895329602976A
:107F700009F0C7CF103011F00296E5CF112480919F
:107F8000C00085FFB9CEBCCE8EE10E94C73CA2CD19
:0C7F900085E90E94C73C9ECDF894FFCF0D
:027F9C00800063
:040000030000780081
:00000001FF