:100000000C9463000C948B000C948B000C949F0454
:100010000C949F040C949F040C948B000C948B0004
:100020000C948B000C948B000C948B000C948B0024
:100030000C948B000C948B000C948B000C948B0014
:100040000C9455040C948B000C9423040C94FD0325
:100050000C948B000C948B000C948B000C948B00F4
:100060000C948B000C948B000000000024002700EF
:100070002A0000000008000201000003040700003D
:1000800000000000000000000000250028002B00F8
:1000900000000000230026002900040404040404D6
:1000A0000404020202020202030303030303010227
:1000B00004081020408001020408102001020408F6
:1000C00010201905FA0811241FBECFEFD8E0DEBFBB
:1000D000CDBF22E0AAE3B1E001C01D92A235B20774
:1000E000E1F711E0A0E0B1E0E8E3F7E102C005903C
:1000F0000D92AA33B107D9F710E0C2E6D0E004C0F0
:100100002197FE010E946309C136D107C9F70E94F9
:10011000D6050C948F0B0C940000CF92DF92EF92D7
:10012000FF920F931F93CF93DF936C017A018B01A2
:10013000C0E0D0E0CE15DF0589F0D8016D918D01CA
:10014000D601ED91FC910190F081E02DC601099559
:10015000892B11F47E0102C02196ECCFC701DF91FB
:10016000CF911F910F91FF90EF90DF90CF90089566
:10017000FC01538D448D252F30E0842F90E0821BAD
:10018000930B541710F0CF96089501970895FC0132
:10019000918D828D981761F0828DDF01A80FB11DBE
:1001A0005D968C91928D9F5F9F73928F90E00895E2
:1001B0008FEF9FEF0895FC01918D828D981731F09C
:1001C000828DE80FF11D858D90E008958FEF9FEFF0
:1001D0000895FC01918D228D892F90E0805C9F4FC6
:1001E000821B91098F739927089587E891E00E94F7
:1001F000E90021E0892B09F420E0822F0895FC0119
:10020000848DDF01A80FB11DA35ABF4F2C91848D9F
:1002100090E001968F739927848FA689B7892C93D4
:10022000A089B1898C9180648C93938D848D98136F
:1002300006C00288F389E02D80818F7D8083089538
:10024000EF92FF920F931F93CF93DF93EC0181E026
:10025000888F9B8D8C8D981305C0E889F9898081E2
:1002600085FD24C0F62E0B8D10E00F5F1F4F0F731E
:100270001127E02E8C8DE8120CC00FB607FCFACFC8
:10028000E889F989808185FFF5CFCE010E94FF00C2
:10029000F1CF8B8DFE01E80FF11DE35AFF4FF08285
:1002A0000B8FEA89FB898081806207C0EE89FF8914
:1002B0006083E889F98980818064808381E090E0AF
:1002C000DF91CF911F910F91FF90EF900895CF9301
:1002D000DF93EC01888D8823C9F0EA89FB8980814E
:1002E00085FD05C0A889B9898C9186FD0FC00FB620
:1002F00007FCF5CF808185FFF2CFA889B9898C9161
:1003000085FFEDCFCE010E94FF00E7CFDF91CF91B7
:10031000089580E090E0892B29F00E94F50081117A
:100320000C940000089590E0FC01EE58FF4F3491CA
:10033000FC01E255FF4F2491FC01E656FF4FE4918A
:10034000EE2309F43BC0332339F1333091F038F414
:100350003130A9F0323001F584B58F7D12C03730CD
:1003600091F03830A1F03430B9F4809180008F7D65
:1003700003C0809180008F77809380000DC084B58A
:100380008F7784BD09C08091B0008F7703C08091C2
:10039000B0008F7D8093B000F0E0EE0FFF1FEA57B2
:1003A000FF4FA591B4918FB7F894EC91611103C000
:1003B00020952E2301C02E2B2C938FBF0895DF9202
:1003C000EF92FF920F931F93CF93DF93D82EC7E046
:1003D000D0E0062F10E087E0E82EF12CD11005C008
:1003E000C7018C1B9D0BB80102C0B8018C2F02C045
:1003F000759567958A95E2F7617077278AE00E9484
:10040000930161E08CE00E94930160E08CE00E9427
:100410009301219718F7DF91CF911F910F91FF90D2
:10042000EF90DF900895CF93DF9390E0FC01E255C9
:10043000FF4F2491FC01E656FF4F8491882361F120
:1004400090E0880F991FFC01E859FF4FC591D491A6
:10045000FC01EA57FF4FA591B491611109C09FB704
:10046000F8948881209582238883EC912E230BC0F9
:10047000623061F49FB7F8943881822F809583238E
:100480008883EC912E2B2C939FBF06C08FB7F894D6
:10049000E8812E2B28838FBFDF91CF9108953FB73E
:1004A000F89480917B0190917C01A0917D01B091A5
:1004B0007E0126B5A89B05C02F3F19F00196A11D0E
:1004C000B11D3FBFBA2FA92F982F8827820F911DEA
:1004D000A11DB11DBC01CD0142E0660F771F881F31
:1004E000991F4A95D1F708958F929F92AF92BF922C
:1004F000CF92DF92EF92FF926B017C010E944F023C
:100500004B015C01C114D104E104F104F1F00E943B
:100510004F02DC01CB0188199909AA09BB09883E61
:100520009340A105B10570F321E0C21AD108E1089A
:10053000F10888EE880E83E0981EA11CB11CC1143E
:10054000D104E104F10419F7DDCFFF90EF90DF90C3
:10055000CF90BF90AF909F908F9008952091810190
:10056000309182012817390771F490917F018091B1
:100570008001981741F0E0917F01F0E0E65CFE4FCA
:10058000808190E008958FEF9FEF089508951F9365
:10059000CF93DF93DC015C962D913C915D97211503
:1005A000310539F481E090E013969C938E93129775
:1005B0003DC05196ED91FC91529750969C91509769
:1005C000892F80951FB75E964C915E9741FB7727E8
:1005D00070F941FD6095F8944081772311F0492B23
:1005E00001C048234083E9012197F1F748E0508199
:1005F00060FF02C0592B01C058235083E9012197A5
:10060000F1F76695415099F7772321F0908189237E
:10061000808303C08081982B90831FBF5C968D914F
:100620009C915D970197F1F721E030E0C901DF91DE
:10063000CF911F9108952091810130918201281757
:10064000390771F48091800120917F0190E0805CF6
:100650009F4F821B910960E470E00E943B0908955E
:1006600080E090E008952091810130918201281767
:100670003907B9F490917F0180918001981789F032
:10068000E0917F01F0E0E65CFE4F808120917F01E8
:1006900030E02F5F3F4F2F73332720937F0190E08F
:1006A00008958FEF9FEF0895E0918101F09182010D
:1006B000E817F90769F4A389B4899C918589809525
:1006C00089238C93109282011092810181E0089518
:1006D00080E00895089580E090E0089561E081E170
:1006E0000E94930160E080E10E94930160E08DE050
:1006F0000C949301CF93DF93FC0124813581232B4C
:1007000071F0FB01DC01CD91DC9160817181CE0142
:100710000E94750B009719F08C1B9D0B02C08FEF88
:100720009FEFDF91CF9108950F931F93CF93DF93A6
:10073000EC0188819981009729F02A813B81261755
:10074000370788F48B016F5F7F4F0E94960A0097EE
:1007500061F0998388831B830A832C813D81232B3D
:1007600011F4FC01108281E001C080E0DF91CF91A3
:100770001F910F910895EF92FF920F931F93CF93C4
:10078000DF93EC01198218821B821A821D821C825F
:100790006115710549F18B01FB0101900020E9F71A
:1007A00031977F01E61AF70AB7010E949403288166
:1007B000398181110DC02115310519F0C9010E943F
:1007C000FE09198218821D821C821B821A820CC0AB
:1007D000FD82EC82B801C901DF91CF911F910F9189
:1007E000FF90EF900C946E0BDF91CF911F910F91C2
:1007F000FF90EF9008950E94600B1F920F920FB62A
:100800000F9211242F933F934F935F936F937F9396
:100810008F939F93AF93BF93EF93FF9387E891E0FC
:100820000E94FF00FF91EF91BF91AF919F918F9137
:100830007F916F915F914F913F912F910F900FBEDC
:100840000F901F9018951F920F920FB60F921124C0
:100850002F938F939F93EF93FF93E0919701F091E4
:1008600098018081E0919D01F0919E0182FD12C06E
:1008700090818091A0018F5F8F732091A1018217D9
:1008800051F0E091A001F0E0E957FE4F958F809381
:10089000A00101C08081FF91EF919F918F912F91D5
:1008A0000F900FBE0F901F9018951F920F920FB6CA
:1008B0000F9211242F933F938F939F93AF93BF93E6
:1008C0008091830190918401A0918501B09186016E
:1008D00030917A0123E0230F2D3720F40196A11DDA
:1008E000B11D05C026E8230F0296A11DB11D20935E
:1008F0007A018093830190938401A0938501B09342
:10090000860180917B0190917C01A0917D01B09145
:100910007E010196A11DB11D80937B0190937C0106
:10092000A0937D01B0937E01BF91AF919F918F9174
:100930003F912F910F900FBE0F901F9018951F920F
:100940000F920FB60F9211242F933F934F935F9303
:100950006F937F938F939F93AF93BF93EF93FF9387
:10096000E0918101F0918201309709F451C0968D98
:10097000A685B785858591FF04C09C91892329F4BC
:1009800047C09C91892309F043C0A389B4899C91F5
:100990008589809589238C93868997890197F1F7BA
:1009A000608D718DA685B785558538E020E0CB0137
:1009B0000197F1F7822F90E095958795282F4C911C
:1009C000452309F02068315091F7868D81FD2095EF
:1009D0008091800190E001968F73992730917F017B
:1009E000381749F0A0918001B0E0A65CBE4F2C936F
:1009F0008093800103C0868D8160868F828D938D68
:100A00000197F1F7A389B4899C918589892B8C93EF
:100A1000FF91EF91BF91AF919F918F917F916F91D6
:100A20005F914F913F912F910F900FBE0F901F90AC
:100A3000189510928A011092890188EE93E0A0E047
:100A4000B0E080938B0190938C01A0938D01B093C3
:100A50008E0120E131E0309388012093870125EC5D
:100A600030E0309394012093930124EC30E03093F4
:100A700096012093950120EC30E03093980120936B
:100A8000970121EC30E030939A012093990122ECF8
:100A900030E030939C0120939B0126EC30E03093B2
:100AA0009E0120939D011092A0011092A10110922D
:100AB000A2011092A3011092260210922702109216
:100AC00028021092290210922A0210922B021092F0
:100AD0002C0210922D0210922E02109232021092CD
:100AE00031028093330290933402A0933502B09385
:100AF000360282E291E09093300280932F021092AE
:100B0000460210924502109248021092470210923B
:100B10004A021092490210924C0210924B026091CC
:100B20004D026E7F6D7F60934D026695617081E02E
:100B3000682782E00E94930161E082E00E94130234
:100B4000E0EBF0E0E491E0933F02ECE9F0E0E491C7
:100B5000F0E0EE0FFF1FEA57FF4F859194919093BD
:100B600041028093400260E08EE00E941302809177
:100B70004D0281FD04C061E08EE00E9493018EE091
:100B800080933B02ECEBF0E0E491E0933C02E8EA76
:100B9000F0E0E491F0E0EE0FFF1FE057FF4F85918A
:100BA000949190933E0280933D020895CF93DF93FA
:100BB000CDB7DEB72C970FB6F894DEBF0FBECDBF12
:100BC000789484B5826084BD84B5816084BD85B528
:100BD000826085BD85B5816085BD80916E00816034
:100BE00080936E00109281008091810082608093DA
:100BF00081008091810081608093810080918000DC
:100C00008160809380008091B10084608093B10006
:100C10008091B00081608093B00080917A00846000
:100C200080937A0080917A00826080937A0080912C
:100C30007A00816080937A0080917A008068809346
:100C40007A001092C10061E081E10E94130261E02C
:100C500080E10E94130261E08DE00E94130261E0D6
:100C60008CE00E94130261E08AE00E94130261E0BE
:100C70008BE00E94130260E08BE00E94930160E031
:100C800080E00E94DF0160E081E00E94DF0161E01E
:100C90008BE00E94930136E0E32E31E0F32E10E06A
:100CA000D7010D917D0161E0802F0E94130261E068
:100CB000802F0E949301112331F060E0F7013297F9
:100CC00080810E94930164E670E080E090E00E94E1
:100CD00074021F5F163021F760E084E00E949301E8
:100CE00000E010E0EE24E394F12C60E08BE00E9441
:100CF0009301B701002E01C0660F0A94EAF780E065
:100D00000E94DF0160E081E00E94DF0161E08BE092
:100D10000E94930162E370E080E090E00E94740220
:100D20000F5F1F4F0830110501F700E010E0EE24BF
:100D3000E394F12C60E08BE00E94930160E080E09E
:100D40000E94DF01B701002E01C0660F0A94EAF786
:100D500081E00E94DF0161E08BE00E94930162E389
:100D600070E080E090E00E9474020F5F1F4F083037
:100D7000110501F761E081E10E94930161E080E1EA
:100D80000E94930161E08DE00E9493016CE271E0AA
:100D900080E090E00E9474020E946E036CE271E0B9
:100DA00080E090E00E94740260E081E10E94930183
:100DB00060E080E10E94930161E08DE00E94930178
:100DC0006CE271E080E090E00E94740210924A02AE
:100DD0001092490210924802109247021092460265
:100DE000109245028FE190E090934C0280934B0269
:100DF00090913B02963108F057C021E030E03093EB
:100E00004602209345022DE130E0309348022093C2
:100E100047022DE030E030934A02209349022091AE
:100E20006800983050F031E09E3008F430E081E006
:100E300001C0880F3A95EAF701C084E0822B8093C5
:100E40006800983038F09E3040F0963148F020E04D
:100E500030E008C02DE630E005C02BE630E002C0EF
:100E60002CE630E03093430220934202983030F475
:100E700081E001C0880F9A95EAF70EC0292F30E073
:100E80009E3018F42850310902C02E50310981E0FB
:100E900001C0880F2A95EAF78093440280914B02A3
:100EA00090914C020197F1F78091490290914A028A
:100EB000892B21F18091810190918201B2E08F32E2
:100EC0009B07E1F0009711F00E94540380914D02BE
:100ED0008E7F80934D021092800110927F018FE2ED
:100EE00092E09093820180938101E0914202F0911F
:100EF0004302908180914402892B8083E091970185
:100F0000F091980182E08083E0919301F091940147
:100F10001082E0919501F091960180E1808310921A
:100F20009F01E0919B01F0919C0186E08083E0911C
:100F30009901F0919A01808180618083E09199010B
:100F4000F0919A01808188608083E0919901F0910D
:100F50009A01808180688083E0919901F0919A01E3
:100F600080818F7D808387E891E090932502809334
:100F700024027E01E4E0EE0EF11C8FE292E00E947A
:100F80001B03892B09F484C065E371E0CE01079649
:100F90000E94BB038FE292E00E941B03892BF9F0B1
:100FA0008FE292E00E94330389831A820B851C85AD
:100FB0000F5F1F4FB801CE0107960E94940388234C
:100FC00049F32F8138858B859C85BE016F5F7F4FEC
:100FD000820F931F0E946E0B1C870B87DBCF60E391
:100FE00071E0CE0101960E94BB03BE016F5F7F4F8F
:100FF000CE0107960E947A038C0189819A810E9412
:10100000FE0917FF0E946E0363E371E0CE010196B3
:101010000E94BB03BE016F5F7F4FCE0107960E9407
:101020007A038C0189819A810E94FE0917FD0CC008
:1010300060E081E10E94930160E080E10E94930101
:1010400061E08DE00E94930166E371E0CE010196BC
:101050000E94BB03BE016F5F7F4FCE0107960E94C7
:101060007A038C0189819A810E94FE0917FD0CC0C8
:1010700061E081E10E94930161E080E10E949301BF
:1010800061E08DE00E9493018F8198850E94FE09A6
:101090008091240290912502DC01ED91FC91008465
:1010A000F185E02D0995892B11F52FB7F8948091E2
:1010B000830190918401A0918501B09186012FBF99
:1010C00040912702509128026091290270912A02D2
:1010D000841B950BA60BB70B85369105A105B105B1
:1010E00008F458C080912602811152C053C010925A
:1010F00026020091240210912502FE0131966F0113
:101100002FB7F8948091830190918401A09185017B
:10111000B09186012FBFF80180879187A287B3879E
:10112000D801ED91FC910284F385E02DC801099569
:1011300097FD10C0F60181936F01EE15FF0501F7D1
:10114000898180932B028A8180932C028B818093EA
:101150002D0220C02FB7F8948091830190918401D3
:10116000A0918501B09186012FBFF801408551857E
:1011700062857385841B950BA60BB70B4481558143
:101180006681778184179507A607B70748F2D8CFFD
:101190001092260260E08BE00E94930160912D0284
:1011A00080E00E94DF0160912C02660F81E00E94C6
:1011B000DF0161E08BE00E94930186E0C82E81E0B0
:1011C000D82E00E010E060912B0270E0002E02C0EB
:1011D000759567950A94E2F76170D6018D916D015E
:1011E0000E9493010F5F1F4F0630110561F70E94A7
:1011F0008901C3CE82E291E09093300280932F0266
:101200008FE292E00C9454032F923F924F925F92A0
:101210006F927F928F929F92AF92BF92CF92DF9206
:10122000EF92FF920F931F93CF93DF93CDB7DEB76B
:10123000CA1BDB0B0FB6F894DEBF0FBECDBF0994FF
:101240002A88398848885F846E847D848C849B8456
:10125000AA84B984C884DF80EE80FD800C811B8164
:10126000AA81B981CE0FD11D0FB6F894DEBF0FBE93
:10127000CDBFED01089597FB072E16F4009407D01B
:1012800077FD09D00E944F0907FC05D03EF49095E8
:1012900081959F4F0895709561957F4F0895AA1B82
:1012A000BB1B51E107C0AA1FBB1FA617B70710F051
:1012B000A61BB70B881F991F5A95A9F78095909583
:1012C000BC01CD010895EE0FFF1F0590F491E02DB4
:1012D0000994CF93DF938230910510F482E090E07F
:1012E000E0915002F091510220E030E0C0E0D0E007
:1012F000309711F14081518148175907C0F04817C4
:10130000590761F482819381209719F09B838A8326
:101310002BC0909351028093500226C021153105B5
:1013200019F04217530718F49A01BE01DF01EF01CB
:101330000280F381E02DDCCF2115310509F1281B56
:10134000390B2430310590F412968D919C911397AE
:101350006115710521F0FB019383828304C0909392
:10136000510280935002FD01329644C0FD01E20F0C
:10137000F31F81939193225031092D933C933AC0EE
:1013800020914E0230914F02232B41F42091020113
:101390003091030130934F0220934E0220910001BF
:1013A000309101012115310541F42DB73EB740912F
:1013B000040150910501241B350BE0914E02F09180
:1013C0004F02E217F307A0F42E1B3F0B2817390733
:1013D00078F0AC014E5F5F4F2417350748F04E0F91
:1013E0005F1F50934F0240934E028193919302C02E
:1013F000E0E0F0E0CF01DF91CF9108950F931F93CC
:10140000CF93DF93009709F48CC0FC0132971382CD
:10141000128200915002109151020115110581F4C0
:1014200020813181820F931F20914E0230914F0213
:101430002817390779F5F0934F02E0934E0271C0F7
:10144000D80140E050E0AE17BF0750F412962D913E
:101450003C911397AD012115310509F1D901F3CF65
:101460009D01DA013383228360817181860F971F8A
:101470008217930769F4EC0128813981260F371F01
:101480002E5F3F4F318320838A819B8193838283A8
:10149000452B29F4F0935102E093500242C0139679
:1014A000FC93EE931297ED01499159919E01240FFF
:1014B000351FE217F30771F480819181840F951F26
:1014C000029611969C938E938281938113969C939E
:1014D0008E931297E0E0F0E0D80112968D919C91E6
:1014E0001397009719F0F8018C01F6CF8D919C911C
:1014F00098012E5F3F4F820F931F20914E02309133
:101500004F022817390769F4309729F410925102D5
:101510001092500202C01382128210934F02009365
:101520004E02DF91CF911F910F910895A0E0B0E09E
:10153000ECE9FAE00C940809EC01009721F4CB01E6
:101540000E946909B8C0FC01E60FF71F9C012250F8
:101550003109E217F30708F4ACC0D9010D911C91D1
:10156000119706171707B0F00530110508F49FC052
:10157000C80104978617970708F499C0025011090B
:10158000061B170B019311936D937C93CF010E945F
:10159000FE098DC05B01A01AB10A4C01800E911E9C
:1015A000A0915002B091510240E050E0E12CF12CAA
:1015B000109709F44AC0A815B905D1F56D907C9033
:1015C0001197630182E0C80ED11CCA14DB0480F1BC
:1015D000A3014A195B096A0182E0C80ED11C129668
:1015E000BC9012971396AC91B5E0CB16D10440F0A5
:1015F000B282A38351834083D9016D937C930AC047
:101600000E5F1F4FC301800F911FF90191838083EB
:10161000EB2DFA2FE114F10431F0D7011396FC936E
:10162000EE93129744C0F0935102E09350023FC0F2
:101630008D919C9111974817590708F4AC017D01D1
:1016400012960D90BC91A02DB3CF80914E02909137
:101650004F0288159905E1F446175707C8F48091A1
:10166000000190910101009741F48DB79EB7409120
:10167000040150910501841B950BE817F907C8F484
:10168000F0934F02E0934E02F901718360830FC023
:10169000CB010E9469097C01009759F0A801BE01A5
:1016A0000E94650BCE010E94FE09C70104C0CE0155
:1016B00002C080E090E0CDB7DEB7EEE00C942409E4
:1016C00081E090E0F8940C948F0BFB01DC0102C0E8
:1016D00001900D9241505040D8F70895FB01DC0174
:1016E00001900D920020E1F70895FB0151915523DF
:1016F000A9F0BF01DC014D9145174111E1F759F403
:10170000CD010190002049F04D9140154111C9F3E0
:10171000FB014111EFCF81E090E00197089510E0C7
:10172000C2E6D0E004C0FE010E9463092196C336E0
:08173000D107C9F7F894FFCFBF
:1017380000005202800009080706050400000000A6
:1017480020018D00B8006701E900C700DB00000038
:101758000000C7028D006B03C6021B033303AE02F1
:0A1768005352005342005357000093
:00000001FF
