:100000000C9463000C948B000C948B000C944B03A9
:100010000C944B030C944B030C948B000C948B00AE
:100020000C948B000C948B000C948B000C948B0024
:100030000C948B000C948B000C948B000C948B0014
:100040000C9401030C948B000C9477020C945102D5
:100050000C948B000C948B000C948B000C948B00F4
:100060000C948B000C948B0000000008000201002F
:100070000003040700000000000000000000000072
:10008000250028002B0000000000240027002A0083
:1000900000000000230026002900040404040404D6
:1000A0000404020202020202030303030303010227
:1000B00004081020408001020408102001020408F6
:1000C000102078096E0911241FBECFEFD8E0DEBFE3
:1000D000CDBF22E0A2E6B1E001C01D92A73FB2076A
:1000E000E1F711E0A0E0B1E0E6E3F8E102C005903D
:1000F0000D92A236B107D9F710E0C2E6D0E004C0F5
:100100002197FE010E94D60AC136D107C9F70E9485
:10011000CC040C940E0C0C940000FC01538D448D07
:10012000252F30E0842F90E0821B930B541710F0A2
:10013000CF96089501970895FC01918D828D9817AF
:1001400061F0828DDF01A80FB11D5D968C91928DBB
:100150009F5F9F73928F90E008958FEF9FEF0895B8
:10016000FC01918D828D981731F0828DE80FF11D81
:10017000858D90E008958FEF9FEF0895FC01918D9C
:10018000228D892F90E0805C9F4F821B91098F7395
:10019000992708958BEB91E00E94BE0021E0892B06
:1001A00009F420E0822F0895FC01848DDF01A80F5F
:1001B000B11DA35ABF4F2C91848D90E001968F738F
:1001C0009927848FA689B7892C93A089B1898C91AE
:1001D00080648C93938D848D981306C00288F38974
:1001E000E02D80818F7D80830895EF92FF920F93A1
:1001F0001F93CF93DF93EC0181E0888F9B8D8C8DD3
:10020000981305C0E889F989808185FD24C0F62E00
:100210000B8D10E00F5F1F4F0F731127E02E8C8D99
:10022000E8120CC00FB607FCFACFE889F989808183
:1002300085FFF5CFCE010E94D400F1CF8B8DFE015A
:10024000E80FF11DE35AFF4FF0820B8FEA89FB891B
:100250008081806207C0EE89FF896083E889F9891F
:1002600080818064808381E090E0DF91CF911F9155
:100270000F91FF90EF900895CF93DF93EC01888D5D
:100280008823C9F0EA89FB89808185FD05C0A8899A
:10029000B9898C9186FD0FC00FB607FCF5CF808120
:1002A00085FFF2CFA889B9898C9185FFEDCFCE016A
:1002B0000E94D400E7CFDF91CF91089580E090E0D5
:1002C000892B29F00E94CA0081110C940000089526
:1002D0003FB7F8948091A7019091A801A091A9013E
:1002E000B091AA0126B5A89B05C02F3F19F0019631
:1002F000A11DB11D3FBFBA2FA92F982F8827820FAC
:10030000911DA11DB11DBC01CD0142E0660F771FFB
:10031000881F991F4A95D1F708952091AD0130911A
:10032000AE012817390771F49091AB018091AC01AF
:10033000981741F0E091AB01F0E0EE59FE4F80815B
:1003400090E008958FEF9FEF089508951F93CF9346
:10035000DF93DC015C962D913C915D972115310571
:1003600039F481E090E013969C938E9312973DC0F0
:100370005196ED91FC91529750969C915097892FF0
:1003800080951FB75E964C915E9741FB772770F979
:1003900041FD6095F8944081772311F0492B01C00D
:1003A00048234083E9012197F1F748E0508160FF3D
:1003B00002C0592B01C058235083E9012197F1F75E
:1003C0006695415099F7772321F0908189238083A6
:1003D00003C08081982B90831FBF5C968D919C9168
:1003E0005D970197F1F721E030E0C901DF91CF91EE
:1003F0001F9108952091AD013091AE012817390762
:1004000071F48091AC012091AB0190E0805C9F4F32
:10041000821B910960E470E00E94AE0A089580E0BA
:1004200090E008952091AD013091AE012817390771
:10043000B9F49091AB018091AC01981789F0E091EB
:10044000AB01F0E0EE59FE4F80812091AB0130E02E
:100450002F5F3F4F2F7333272093AB0190E0089518
:100460008FEF9FEF0895E091AD01F091AE01E81795
:10047000F90769F4A389B4899C91858980958923BA
:100480008C931092AE011092AD0181E0089580E04E
:100490000895089580E090E00895059608950E94DB
:1004A000090C1F920F920FB60F9211242F933F93B6
:1004B0004F935F936F937F938F939F93AF93BF936C
:1004C000EF93FF938BEB91E00E94D400FF91EF91AB
:1004D000BF91AF919F918F917F916F915F914F915C
:1004E0003F912F910F900FBE0F901F9018951F9264
:1004F0000F920FB60F9211242F938F939F93EF9328
:10050000FF93E091CB01F091CC018081E091D1018A
:10051000F091D20182FD12C090818091D4018F5F51
:100520008F732091D501821751F0E091D401F0E052
:10053000E554FE4F958F8093D40101C08081FF91D7
:10054000EF919F918F912F910F900FBE0F901F9061
:10055000189590E0FC01E859FF4F3491FC01E255F9
:10056000FF4F2491FC01E656FF4FE491EE2309F47E
:100570003BC0332339F1333091F038F43130A9F0F6
:10058000323001F584B58F7D12C0373091F03830AC
:10059000A1F03430B9F4809180008F7D03C0809148
:1005A00080008F77809380000DC084B58F7784BDE5
:1005B00009C08091B0008F7703C08091B0008F7D1B
:1005C0008093B000F0E0EE0FFF1FE458FF4FA591BD
:1005D000B4918FB7F894EC91611103C020952E234C
:1005E00001C02E2B2C938FBF08952FB7F8946091E4
:1005F000A3017091A4018091A5019091A6012FBF44
:1006000008951F920F920FB60F9211242F933F93CC
:100610008F939F93AF93BF938091A3019091A40177
:10062000A091A501B091A6013091A20123E0230F72
:100630002D3720F40196A11DB11D05C026E8230F1A
:100640000296A11DB11D2093A2018093A301909356
:10065000A401A093A501B093A6018091A701909158
:10066000A801A091A901B091AA010196A11DB11DF7
:100670008093A7019093A801A093A901B093AA0128
:10068000BF91AF919F918F913F912F910F900FBE8E
:100690000F901F9018951F920F920FB60F92112472
:1006A0002F933F934F935F936F937F938F939F937A
:1006B000AF93BF93EF93FF93E091AD01F091AE0143
:1006C000309709F451C0968DA685B785858591FF31
:1006D00004C09C91892329F447C09C91892309F087
:1006E00043C0A389B4899C918589809589238C9383
:1006F000868997890197F1F7608D718DA685B785F9
:10070000558538E020E0CB010197F1F7822F90E08A
:1007100095958795282F4C91452309F020683150F5
:1007200091F7868D81FD20958091AC0190E0019636
:100730008F7399273091AB01381749F0A091AC0124
:10074000B0E0AE59BE4F2C938093AC0103C0868DB0
:100750008160868F828D938D0197F1F7A389B4898B
:100760009C918589892B8C93FF91EF91BF91AF91DB
:100770009F918F917F916F915F914F913F912F91B9
:100780000F900FBE0F901F901895CF92DF92EF92AF
:10079000FF920F931F93CF93DF936C017A018B012C
:1007A000C0E0D0E0CE15DF0589F0D8016D918D0154
:1007B000D601ED91FC910190F081E02DC6010995E3
:1007C000892B11F47E0102C02196ECCFC701DF9185
:1007D000CF911F910F91FF90EF90DF90CF900895F0
:1007E000EBEBF1E0A089B18982E08C93A485B5851B
:1007F0001C92A685B78580E18C93108EA489B5895B
:1008000086E08C93A289B3898C9180618C93A289B4
:10081000B3898C9188608C93A289B3898C9180680C
:100820008C930288F389E02D80818F7D80830895E9
:10083000FC019381292F30E02D31310594F481E0C2
:10084000890F83838481DF01A80FB11D92969C9349
:1008500091E0980F9483891728F4E20FF31F158213
:1008600008958FEF08958F929F92AF92BF92CF928B
:10087000DF92EF92FF926B017C010E94F5024B0127
:100880005C01C60ED71EE81EF91E0E94F50268150F
:1008900079058A059B0528F0C616D706E806F906ED
:1008A000A0F7FF90EF90DF90CF90BF90AF909F9018
:1008B0008F9008956115710579F0FB01019000207A
:1008C000E9F73197AF01461B570BDC01ED91FC9125
:1008D0000280F381E02D099480E090E008954F922A
:1008E0005F926F927F92EF92FF920F931F93CF933D
:1008F000DF93CDB7DEB7A1970FB6F894DEBF0FBE7A
:10090000CDBF7C01FA01CB0119A2223008F42AE004
:100910008E010F5D1F4F422E512C612C712CBF0197
:10092000A30192010E948C0AF901CA010150110928
:100930006A3014F4605D01C0695CD8016C93232BAC
:10094000242B252B61F7B801C7010E945A04A196F8
:100950000FB6F894DEBF0FBECDBFDF91CF911F91D0
:100960000F91FF90EF907F906F905F904F90089560
:100970000F931F93CF93DF93EC010E945A048C01D5
:100980006FE371E0CE010E945A04800F911FDF9146
:10099000CF911F910F910895CF93DF93CDB7DEB71D
:1009A000A0970FB6F894DEBF0FBECDBF789484B584
:1009B000826084BD84B5816084BD85B5826085BD5B
:1009C00085B5816085BD80916E00816080936E00E9
:1009D00010928100809181008260809381008091DB
:1009E000810081608093810080918000816080938C
:1009F00080008091B10084608093B1008091B0004C
:100A000081608093B00080917A00846080937A0046
:100A100080917A00826080937A0080917A00816070
:100A200080937A0080917A00806880937A00109297
:100A3000C10010929C0210929D0210929E02109290
:100A40009F0210925A0210925B0210925C02109266
:100A50005D0268EB7BE080E090E00E9433048BEB6A
:100A600091E090939B0280939A020E94F0030E946F
:100A7000F50260935A0270935B0280935C0290933C
:100A80005D0260E371E080919A0290919B020E9466
:100A90005A046AE070E080E090E00E94330481E054
:100AA00080936E020E94F0031092EF021092EE0209
:100AB0001092ED021092EC021092EB021092EA02F8
:100AC00082E490E09093F1028093F0029091E00232
:100AD000963108F057C02FE030E03093EB022093BE
:100AE000EA0220E430E03093ED022093EC0227E2AA
:100AF00030E03093EF022093EE02209168009830AE
:100B000050F031E09E3008F430E081E001C0880F01
:100B10003A95EAF701C084E0822B80936800983010
:100B200038F09E3040F0963148F020E030E008C0C8
:100B30002DE630E005C02BE630E002C02CE630E0C8
:100B40003093E8022093E702983030F481E001C04E
:100B5000880F9A95EAF70EC0292F30E09E3018F4DE
:100B60002850310902C02E50310981E001C0880FA0
:100B70002A95EAF78093E9028091F0029091F102C0
:100B80000197F1F78091EE029091EF02892B21F10C
:100B90008091AD019091AE0122E0843D9207E1F099
:100BA000009711F00E9433028091F2028E7F8093B1
:100BB000F2021092AC011092AB0184ED92E090939E
:100BC000AE018093AD01E091E702F091E8029081DF
:100BD0008091E902892B808384ED92E09093A102B9
:100BE0008093A002D090A2020D2D10E0C8010196C2
:100BF0002FE3AC01249FC001259F900D11240E947A
:100C0000DC0A7C019801FC0135964AE051E08DE157
:100C1000DF01159711965C934E9312961C921196D4
:100C20001C9211961C92DF01982F1D929A95E9F75C
:100C300021503109FF962F3FAFEF3A0749F7A7013F
:100C40004E5D5F4F60E070E090E08DE12091A30287
:100C50003091A4029D1541F1260F371FF901A281A1
:100C6000FA01B097A083F901A381FA017F97A083CD
:100C7000F901A481FA017E97A083DA015D97F90159
:100C80003596182F01900D921A95E1F7F901B29659
:100C9000DA01282F01900D922A95E1F79F5F615CA0
:100CA0007F4F415C5F4FD2CFF7014FE3949FE00D40
:100CB000F11D112492832115310519F0C9010E94FB
:100CC000710BF092A402E092A3028091A20291E043
:100CD000980F9093A2028093A50206EA12E0F6E034
:100CE000FF2EF00E2091A5028091A202281750F449
:100CF0008091A3029091A4025FE3259F800D911D36
:100D0000112402C080E090E00E941804D8018D9365
:100D10008D01FA12E7CF0CEA12E0E7E0FE2EF00EAA
:100D20002091A5028091A202281750F48091A3027D
:100D30009091A402BFE32B9F800D911D112402C04E
:100D400080E090E00E941804F80181938F01FE1268
:100D5000E7CF03EB12E077E0F72EF00E2091A5022B
:100D60008091A202281750F48091A3029091A402CE
:100D7000FFE32F9F800D911D112402C080E090E0C1
:100D80000E941804D8018D938D01FA12E7CF34EF39
:100D9000832E99249394A12CB12CCC24C3948E013E
:100DA0000F5F1F4F4DE1D42ED00E8AEB92E056E03C
:100DB000F52EF80E87EC92E067E0E62EE80E0E9432
:100DC000F502672B682B692B41F40E94F502623013
:100DD00071058105910508F405C10E94F502609333
:100DE000B7017093B8018093B9019093BA01409014
:100DF000B3015090B4016090B5017090B6016415D4
:100E000075058605970540F46093B3017093B401AE
:100E10008093B5019093B6014090B3015090B40116
:100E20006090B5017090B6019B01AC0124193509A1
:100E30004609570929013A013AEF43165104610462
:100E4000710408F4CFC06093B3017093B401809330
:100E5000B5019093B6018092660290926702A092CB
:100E60006802B092690210926A0210926B021092AC
:100E70006C0210926D0280915E0290915F02A091CF
:100E80006002B09161028093620290936302A0932A
:100E90006402B09365020E94F50260935E02709353
:100EA0005F0280936002909361020E94F50260935A
:100EB0005A0270935B0280935C0290935D020E94E1
:100EC000F5022B013C0162E471E080919A0290915D
:100ED0009B020E945A042AE041E050E060E070E08A
:100EE00080919A0290919B020E946F0469E471E0E4
:100EF00080919A0290919B020E945A042AE0B301C9
:100F0000A20180919A0290919B020E946F046BE46F
:100F100071E080919A0290919B020E945A04809104
:100F20005E0290915F02A0916002B0916102B301F4
:100F3000A201481B590B6A0B7B0B2AE080919A0295
:100F400090919B020E946F046BE471E080919A0281
:100F500090919B020E945A0440915E0250915F0260
:100F600060916002709161028091620290916302CF
:100F7000A0916402B0916502481B590B6A0B7B0B70
:100F80002AE080919A0290919B020E946F046DE486
:100F900071E080919A0290919B020E945A040E94F3
:100FA000F502AB01BC012AE080919A0290919B026C
:100FB0000E946F046FE471E080919A0290919B020D
:100FC0000E94B80465E070E080E090E00E94330485
:100FD0000E94F50260935E0270935F02809360024C
:100FE000909361020E94F5024090AF015090B001D1
:100FF0006090B1017090B201DC01CB0184199509B8
:10100000A609B7090697A105B105B8F10E94F50236
:101010006093AF017093B0018093B1019093B201DE
:101020008091CE02811129C0C092CE020E94F502A9
:101030006093CF027093D0028093D1029093D2023A
:1010400066E571E08091A0029091A1020E94B8042F
:101050002091D3028091A0029091A102213049F009
:1010600028F0223051F46FE571E005C069E571E0C8
:1010700002C06CE571E00E94B8048091A0029091DA
:10108000A102DC01ED91FC910084F185E02D099530
:10109000892BD9F40E94F5024090CF025090D002E3
:1010A0006090D1027090D202DC01CB0184199509C5
:1010B000A609B70985369105A105B10508F4E8C070
:1010C0008091CE02811107C1E3C01092CE02712C33
:1010D0008091A0029091A102DC01ED91FC9100842D
:1010E000F185E02D0995892B09F44DC0B0E2B715C3
:1010F000A8F08091A0029091A102DC01ED91FC91F9
:101100000284F385E02D0995F801E70DF11D808338
:1011100073940E9468011B012C0127C08091A002DA
:101120009091A102DC01ED91FC910084F185E02D0C
:101130000995892BF1F28091A0029091A102DC0126
:10114000ED91FC910284F385E02D0995E7CF809124
:10115000A0029091A102DC01ED91FC910084F18547
:10116000E02D0995892B09F0B3CF0E946801DC01BD
:10117000CB0182199309A409B509883E9340A105C2
:10118000B10528F3A5CF4091A5025091A2024517C1
:1011900050F4E091A302F091A402BFE34B9FE00D55
:1011A000F11D112402C0E0E0F0E03596D8018D91E8
:1011B0008193DA12FCCFEFE34E9FC0011124451753
:1011C00038F4A091A302B091A402A80FB91F02C0E5
:1011D000A0E0B0E014966C9114972AEB622E22E006
:1011E000722E930124513109F9012081261748F408
:1011F000FD01E20FF11D22A1FD01E20FF11D25818C
:1012000001C020E0F30121933F01FE12EACF451710
:1012100038F4E091A302F091A402E80FF91F02C094
:10122000E0E0F0E0848147EC52E09A012B51310973
:10123000D9019C91981768F49F01290F311DD9019C
:1012400092969C919F01290F311DD90115969C9171
:1012500001C090E09A0127503109D9019C932D508B
:101260003109D9019C91981768F49F01290F311D0C
:10127000D90192969C919F01290F311DD901159694
:101280009C9101C090E0DA019D93AD01EA12CDCFAF
:101290001092D3024091BA0250E060E070E02AE080
:1012A0008BEB91E00E946F044091C00250E060E03F
:1012B00070E02AE08BEB91E00E946F044091C7023E
:1012C00050E060E070E02AE08BEB91E00E946F0458
:1012D0000E945E0174CD1092CE02DACF82E291E0DC
:1012E0009093D5028093D40284ED92E00C94330263
:1012F000CF93DF931092BE011092BD0188EE93E070
:10130000A0E0B0E08093BF019093C001A093C10121
:10131000B093C20120E131E03093BC012093BB01C6
:1013200025EC30E03093C8012093C70124EC30E075
:101330003093CA012093C90120EC30E03093CC01F6
:101340002093CB0121EC30E03093CE012093CD01EE
:1013500022EC30E03093D0012093CF0126EC30E036
:101360003093D2012093D1011092D4011092D50173
:101370001092D6011092D70110925E0210925F0275
:101380001092600210926102109262021092630247
:101390001092640210926502109266021092670227
:1013A000109268021092690210926A0210926B0207
:1013B00010926C0210926D021092A2021092A4027E
:1013C0001092A3021092CE021092CF021092D0027D
:1013D0001092D1021092D2021092D3021092D70230
:1013E0001092D6028093D8029093D902A093DA0289
:1013F000B093DB0282E291E09093D5028093D40215
:101400001092EB021092EA021092ED021092EC029E
:101410001092EF021092EE021092F1021092F0027E
:101420006091F2026E7F6D7F6093F202669561704B
:1014300081E0682783E00E94A902E1EBF0E02491BB
:10144000EDE9F0E08491882399F090E0880F991FEE
:10145000FC01EA57FF4FA591B491FC01E458FF4FFE
:10146000859194918FB7F894EC91E22BEC938FBF18
:10147000E1EBF0E0E491E093E402EDE9F0E0E491E7
:10148000F0E0EE0FFF1FE458FF4F85919491909389
:10149000E6028093E502E2EBF0E02491EEE9F0E071
:1014A00084918823C1F090E0880F991FFC01EA57CE
:1014B000FF4FC591D491FC01E458FF4FA591B49121
:1014C0009FB7F8948881E22FE0958E2388838C91D2
:1014D000E823EC939FBF8091F20281FD04C061E09C
:1014E00084E00E94A90284E08093E002E2EBF0E055
:1014F000E491E093E102EEE9F0E0E491F0E0EE0F38
:10150000FF1FE057FF4F859194919093E3028093E2
:10151000E202DF91CF910895A1E21A2EAA1BBB1B14
:10152000FD010DC0AA1FBB1FEE1FFF1FA217B307AF
:10153000E407F50720F0A21BB30BE40BF50B661FC5
:10154000771F881F991F1A9469F760957095809589
:1015500090959B01AC01BD01CF01089597FB072E2B
:1015600016F4009407D077FD09D00E94C20A07FC48
:1015700005D03EF4909581959F4F089570956195A3
:101580007F4F0895AA1BBB1B51E107C0AA1FBB1FB9
:10159000A617B70710F0A61BB70B881F991F5A95FF
:1015A000A9F780959095BC01CD010895EE0FFF1F1E
:1015B0000590F491E02D0994CF93DF93823091054B
:1015C00010F482E090E0E091F502F091F60220E064
:1015D00030E0C0E0D0E0309711F1408151814817F0
:1015E0005907C0F04817590761F482819381209709
:1015F00019F09B838A832BC09093F6028093F502A7
:1016000026C02115310519F04217530718F49A0125
:10161000BE01DF01EF010280F381E02DDCCF211557
:10162000310509F1281B390B2430310590F412964D
:101630008D919C9113976115710521F0FB019383A6
:10164000828304C09093F6028093F502FD013296E6
:1016500044C0FD01E20FF31F8193919322503109A1
:101660002D933C933AC02091F3023091F402232B46
:1016700041F420910201309103013093F402209350
:10168000F30220910001309101012115310541F44F
:101690002DB73EB74091040150910501241B350B35
:1016A000E091F302F091F402E217F307A0F42E1B8D
:1016B0003F0B2817390778F0AC014E5F5F4F2417B6
:1016C000350748F04E0F5F1F5093F4024093F3022A
:1016D0008193919302C0E0E0F0E0CF01DF91CF91E0
:1016E00008950F931F93CF93DF93009709F48CC055
:1016F000FC013297138212820091F5021091F602DA
:101700000115110581F420813181820F931F2091F1
:10171000F3023091F4022817390779F5F093F402B7
:10172000E093F30271C0D80140E050E0AE17BF076C
:1017300050F412962D913C911397AD01211531056E
:1017400009F1D901F3CF9D01DA013383228360814E
:101750007181860F971F8217930769F4EC01288126
:101760003981260F371F2E5F3F4F318320838A81B7
:101770009B8193838283452B29F4F093F602E093B7
:10178000F50242C01396FC93EE931297ED01499136
:1017900059919E01240F351FE217F30771F48081E0
:1017A0009181840F951F029611969C938E9382814E
:1017B000938113969C938E931297E0E0F0E0D8010A
:1017C00012968D919C911397009719F0F8018C0156
:1017D000F6CF8D919C9198012E5F3F4F820F931F02
:1017E0002091F3023091F4022817390769F43097F9
:1017F00029F41092F6021092F50202C013821282AE
:101800001093F4020093F302DF91CF911F910F9197
:10181000089581E090E0F8940C940E0C10E0C2E67C
:10182000D0E004C0FE010E94D60A2196C336D1073B
:06183000C9F7F894FFCF98
:101836000000F7028000000000004D0200000000DA
:10184600F500C5038D003C01BE009C00B000000001
:101856000000A601C5034A02A501FA0112028D0184
:10186600564D4450565F317C315F564D4450560DAF
:101876000A00564D4450455F003A323A007C005FFC
:10188600564D4450450052510053520053420053A6
:021896005700F9
:00000001FF
